:020000040000FA
:100000000C9435000C945D000C945D000C945D0024
:100010000C945D000C945D000C945D000C945D00EC
:100020000C945D000C945D000C945D000C945D00DC
:100030000C945D000C945D000C945D000C945D00CC
:100040000C946C010C945D000C94DC010C94B601D2
:100050000C945D000C945D000C945D000C945D00AC
:100060000C945D000C945D00040311241FBECFEFBF
:10007000D8E0DEBFCDBF11E0A0E0B1E0E0E8F8E0FD
:1000800002C005900D92AA31B107D9F721E0AAE18B
:10009000B1E001C01D92A03CB207E1F710E0C5E35A
:1000A000D0E004C02197FE010E943804C433D10778
:1000B000C9F70E940E020C943E040C940000AF920B
:1000C000BF92CF92DF92EF92FF920F931F93CF9345
:1000D000DF936C017B018B01040F151FEB015E01A7
:1000E000AE18BF08C017D10759F06991D601ED913C
:1000F000FC910190F081E02DC6010995892B79F7DB
:10010000C501DF91CF911F910F91FF90EF90DF908C
:10011000CF90BF90AF900895FC01538D448D252F53
:1001200030E0842F90E0821B930B541710F0CF9691
:10013000089501970895FC01918D828D981761F0C3
:10014000A28DAE0FBF2FB11D5D968C91928D9F5FDA
:100150009F73928F90E008958FEF9FEF0895FC01B9
:10016000918D828D981731F0828DE80FF11D858D6C
:1001700090E008958FEF9FEF0895FC01918D228DFF
:10018000892F90E0805C9F4F821B91098F73992784
:1001900008958AE191E00E94BD0021E0892B09F4D5
:1001A00020E0822F089580E090E0892B29F00E94C2
:1001B000C90081110C9400000895FC01A48DA80FC2
:1001C000B92FB11DA35ABF4F2C91848D90E0019699
:1001D0008F739927848FA689B7892C93A089B189B9
:1001E0008C91837080648C93938D848D981306C05A
:1001F0000288F389E02D80818F7D80830895EF92BE
:10020000FF920F931F93CF93DF93EC0181E0888FD0
:100210009B8D8C8D98131AC0E889F989808185FFA0
:1002200015C09FB7F894EE89FF896083E889F98942
:1002300080818370806480839FBF81E090E0DF9144
:10024000CF911F910F91FF90EF900895F62E0B8D97
:1002500010E00F5F1F4F0F731127E02E8C8D8E1152
:100260000CC00FB607FCFACFE889F989808185FFB9
:10027000F5CFCE010E94DD00F1CFEB8DEC0FFD2F0D
:10028000F11DE35AFF4FF0829FB7F8940B8FEA8974
:10029000FB8980818062CFCFCF93DF93EC01888D83
:1002A0008823B9F0AA89BB89E889F9898C9185FDF1
:1002B00003C0808186FD0DC00FB607FCF7CF8C917F
:1002C00085FFF2CF808185FFEDCFCE010E94DD005A
:1002D000E9CFDF91CF9108951F920F920FB60F9241
:1002E00011242F933F938F939F93AF93BF9380914C
:1002F000BC019091BD01A091BE01B091BF013091B0
:10030000BB0123E0230F2D3758F50196A11DB11D28
:100310002093BB018093BC019093BD01A093BE01CB
:10032000B093BF018091B7019091B801A091B9013C
:10033000B091BA010196A11DB11D8093B7019093B0
:10034000B801A093B901B093BA01BF91AF919F9149
:100350008F913F912F910F900FBE0F901F90189586
:1003600026E8230F0296A11DB11DD2CF1F920F9236
:100370000FB60F9211242F933F934F935F936F9378
:100380007F938F939F93AF93BF93EF93FF938AE1F4
:1003900091E00E94DD00FF91EF91BF91AF919F919D
:1003A0008F917F916F915F914F913F912F910F901E
:1003B0000FBE0F901F9018951F920F920FB60F92BD
:1003C00011242F938F939F93EF93FF93E0912A0132
:1003D000F0912B018081E0913001F091310182FD9B
:1003E0001BC09081809133018F5F8F732091340106
:1003F000821741F0E0913301F0E0E65EFE4F958F09
:1004000080933301FF91EF919F918F912F910F90E6
:100410000FBE0F901F9018958081F4CFCF93DF937C
:10042000CDB7DEB7A1970FB6F894DEBF0FBECDBF34
:10043000789484B5826084BD84B5816084BD85B5BF
:10044000826085BD85B5816085BD80916E008160CB
:1004500080936E0010928100809181008260809371
:100460008100809181008160809381008091800073
:100470008160809380008091B10084608093B1009E
:100480008091B00081608093B00080917A00846098
:1004900080937A0080917A00826080937A008091C4
:1004A0007A00816080937A0080917A0080688093DE
:1004B0007A001092C100E0912A01F0912B0182E0B4
:1004C0008083E0912601F09127011082E0912801BC
:1004D000F09129018FEC808310923201E0912E017E
:1004E000F0912F0186E08083E0912C01F0912D01A5
:1004F000808180618083E0912C01F0912D018081C9
:1005000088608083E0912C01F0912D0180818068CA
:100510008083E0912C01F0912D0180818F7D80837B
:1005200083E6482E512C612C712C9AE0C92ED12CD7
:10053000E12CF12C20E0222E20E0322E0E947D03BF
:10054000A30192010E94D5034B015C01DC01CB01A8
:100550000196A11DB11DB7FF41C06DE28AE191E096
:100560000E94FF00A501940120953095409550957B
:1005700019A28E010F5D1F4FCA01B901A701960193
:100580000E940704605DF80162938F012115310517
:100590004105510589F70115110561F00190002011
:1005A000E9F73197AF01401B510BB8018AE191E0A7
:1005B0000E945F0042E050E066E171E08AE191E074
:1005C0000E945F002114310409F4B8CF0E94C900D1
:1005D000882309F4B3CF0E940000B0CF9C01AD0185
:1005E00019A28E010F5D1F4FCA01B901A701960123
:1005F0000E940704605DF80162938F0121153105A7
:100600004105510589F7C7CFEAE1F1E01382128273
:1006100088EE93E0A0E0B0E084839583A683B7835F
:1006200088E091E09183808385EC90E095878487D2
:1006300084EC90E09787868780EC90E0918B808BAC
:1006400081EC90E0938B828B82EC90E0958B848B95
:1006500086EC90E0978B868B118E128E138E148E03
:1006600008958F929F92AF92BF92CF92DF92EF92B6
:10067000FF92CF93DF93EC01688179818A819B811E
:10068000611571058105910521F464E279ED8BE531
:1006900097E02DE133EF41E050E00E94D50349019E
:1006A0005A019B01AC01A7EAB1E40E94F4036B017B
:1006B0007C01ACEEB4EFA50194010E940204C60EC9
:1006C000D71EE81EF91EF7FE06C081E0C81AD10841
:1006D000E10880E8F80AC882D982EA82FB82C70171
:1006E000B6019F77DF91CF91FF90EF90DF90CF9091
:1006F000BF90AF909F908F9008958F929F92AF92EE
:10070000BF92CF92DF92EF92FF92609100017091C1
:10071000010180910201909103016115710581052C
:10072000910521F464E279ED8BE597E02DE133EF5B
:1007300041E050E00E94D50349015A019B01AC0100
:10074000A7EAB1E40E94F4036B017C01ACEEB4EFC4
:10075000A50194010E940204C60ED71EE81EF91ED0
:10076000F7FE06C081E0C81AD108E10880E8F80A5F
:10077000C0920001D0920101E0920201F0920301C7
:10078000C701B6019F77FF90EF90DF90CF90BF90A9
:10079000AF909F908F900895609300017093010136
:1007A00080930201909303010895052E97FB1EF498
:1007B00000940E94EC0357FD07D00E94070407FC39
:1007C00003D04EF40C94EC03509540953095219550
:1007D0003F4F4F4F5F4F089590958095709561956D
:1007E0007F4F8F4F9F4F08950E942904A59F900D22
:1007F000B49F900DA49F800D911D11240895B7FF03
:100800000C94F4030E94F403821B930B0895A1E25D
:100810001A2EAA1BBB1BFD010DC0AA1FBB1FEE1F7A
:10082000FF1FA217B307E407F50720F0A21BB30BC5
:10083000E40BF50B661F771F881F991F1A9469F741
:1008400060957095809590959B01AC01BD01CF019D
:100850000895A29FB001B39FC001A39F700D811D99
:100860001124911DB29F700D811D1124911D0895B9
:10087000EE0FFF1F0590F491E02D0994F894FFCF3F
:100880000100000000000000FF005F008C004C0130
:0A089000BD009B00AF000D0A000040
:107E0000112484B714BE81FFF0D085E080938100F7
:107E100082E08093C00088E18093C10086E0809377
:107E2000C20080E18093C4008EE0C9D0259A86E02C
:107E300020E33CEF91E0309385002093840096BBD3
:107E4000B09BFECF1D9AA8958150A9F7CC24DD24C4
:107E500088248394B5E0AB2EA1E19A2EF3E0BF2EE7
:107E6000A2D0813461F49FD0082FAFD0023811F036
:107E7000013811F484E001C083E08DD089C08234E0
:107E800011F484E103C0853419F485E0A6D080C0E4
:107E9000853579F488D0E82EFF2485D0082F10E0AE
:107EA000102F00270E291F29000F111F8ED06801E7
:107EB0006FC0863521F484E090D080E0DECF843638
:107EC00009F040C070D06FD0082F6DD080E0C81688
:107ED00080E7D80618F4F601B7BEE895C0E0D1E017
:107EE00062D089930C17E1F7F0E0CF16F0E7DF06D8
:107EF00018F0F601B7BEE89568D007B600FCFDCFD4
:107F0000A601A0E0B1E02C9130E011968C91119780
:107F100090E0982F8827822B932B1296FA010C0160
:107F200087BEE89511244E5F5F4FF1E0A038BF0790
:107F300051F7F601A7BEE89507B600FCFDCF97BE46
:107F4000E89526C08437B1F42ED02DD0F82E2BD052
:107F50003CD0F601EF2C8F010F5F1F4F84911BD097
:107F6000EA94F801C1F70894C11CD11CFA94CF0C13
:107F7000D11C0EC0853739F428D08EE10CD085E9AC
:107F80000AD08FE07ACF813511F488E018D01DD067
:107F900080E101D065CF982F8091C00085FFFCCF94
:107FA0009093C60008958091C00087FFFCCF809118
:107FB000C00084FD01C0A8958091C6000895E0E648
:107FC000F0E098E1908380830895EDDF803219F02E
:107FD00088E0F5DFFFCF84E1DECF1F93182FE3DFCA
:107FE0001150E9F7F2DF1F91089580E0E8DFEE27F6
:047FF000FF270994CA
:027FFE00040479
:00000001FF
